:0400000035EF3FF0A9
:107E4A003F0006005B004F0066006D007C004700A3
:107E5A007F00670077007C0039005E0079007100BE
:107E6A004A0EF66E7E0EF76E000EF86E00EE01F008
:107E7A0010EE20F00900F5CFEEFFE550E150FAE1EF
:107E8A00000148EF3FF00F0EC16E000E936E010E17
:107E9A00956E8350D8A454EF3FF056EF3FF058EF59
:107EAA003FF001C08AFF8304D8A45EEF3FF060EF81
:107EBA003FF062EF3FF003C08AFF020E8318D8A496
:107ECA0069EF3FF06BEF3FF06DEF3FF005C08AFFBF
:107EDA00030E8318D8A474EF3FF076EF3FF078EFE3
:107EEA003FF007C08AFF040E8318D8A47FEF3FF043
:107EFA0081EF3FF083EF3FF009C08AFF050E831838
:107F0A00D8A48AEF3FF08CEF3FF08EEF3FF00BC022
:107F1A008AFF060E8318D8A495EF3FF097EF3FF03B
:107F2A0099EF3FF00DC08AFF070E8318D8A4A0EF7F
:107F3A003FF0A2EF3FF0A4EF3FF00FC08AFF080E18
:107F4A008318D8A4ABEF3FF0ADEF3FF0AFEF3FF0AF
:107F5A0011C08AFF090E8318D8A4B6EF3FF0B8EF14
:107F6A003FF0BAEF3FF013C08AFF0A0E8318D8A475
:107F7A00C1EF3FF0C3EF3FF0C5EF3FF015C08AFFF6
:107F8A000B0E8318D8A4CCEF3FF0CEEF3FF0D0EF22
:107F9A003FF017C08AFF0C0E8318D8A4D7EF3FF022
:107FAA00D9EF3FF0DBEF3FF019C08AFF0D0E8318BF
:107FBA00D8A4E2EF3FF0E4EF3FF0E6EF3FF01BC05A
:107FCA008AFF0E0E8318D8A4EDEF3FF0EFEF3FF0D3
:107FDA00F1EF3FF01DC08AFF0F0E8318D8A4F8EF07
:107FEA003FF0FAEF3FF048EF3FF01FC08AFF48EF3B
:067FFA003FF000EF00F073
:020000040020DA
:08000000FFFFFFFFFFFFFFFF00
:020000040030CA
:0E000000000C1F1FFF8385FF0FC00FE00F4095
:00000001FF
